{
  "contractName": "Vote",
  "abi": [
    {
      "inputs": [],
      "stateMutability": "nonpayable",
      "type": "constructor"
    },
    {
      "inputs": [
        {
          "internalType": "string",
          "name": "_votingName",
          "type": "string"
        },
        {
          "internalType": "uint256[]",
          "name": "variants",
          "type": "uint256[]"
        },
        {
          "internalType": "address[]",
          "name": "_allowedUsers",
          "type": "address[]"
        }
      ],
      "name": "_createVoting",
      "outputs": [],
      "stateMutability": "payable",
      "type": "function",
      "payable": true
    },
    {
      "inputs": [
        {
          "internalType": "address",
          "name": "votingOwner",
          "type": "address"
        },
        {
          "internalType": "string",
          "name": "_votingName",
          "type": "string"
        },
        {
          "internalType": "uint256",
          "name": "_index",
          "type": "uint256"
        }
      ],
      "name": "_vote",
      "outputs": [],
      "stateMutability": "nonpayable",
      "type": "function"
    },
    {
      "inputs": [
        {
          "internalType": "address",
          "name": "ownerAddress",
          "type": "address"
        }
      ],
      "name": "getUserVotings",
      "outputs": [
        {
          "internalType": "string[]",
          "name": "",
          "type": "string[]"
        }
      ],
      "stateMutability": "view",
      "type": "function",
      "constant": true
    },
    {
      "inputs": [
        {
          "internalType": "address",
          "name": "ownerAddress",
          "type": "address"
        },
        {
          "internalType": "string",
          "name": "votingName",
          "type": "string"
        }
      ],
      "name": "getAllowedUsers",
      "outputs": [
        {
          "internalType": "address[]",
          "name": "",
          "type": "address[]"
        }
      ],
      "stateMutability": "view",
      "type": "function",
      "constant": true
    },
    {
      "inputs": [
        {
          "internalType": "address",
          "name": "ownerAddress",
          "type": "address"
        },
        {
          "internalType": "string",
          "name": "votingName",
          "type": "string"
        },
        {
          "internalType": "uint256",
          "name": "index",
          "type": "uint256"
        }
      ],
      "name": "getVoters",
      "outputs": [
        {
          "internalType": "address[]",
          "name": "",
          "type": "address[]"
        }
      ],
      "stateMutability": "view",
      "type": "function",
      "constant": true
    },
    {
      "inputs": [
        {
          "internalType": "address",
          "name": "ownerAddress",
          "type": "address"
        },
        {
          "internalType": "string",
          "name": "votingName",
          "type": "string"
        }
      ],
      "name": "getVotes",
      "outputs": [
        {
          "internalType": "uint256[]",
          "name": "",
          "type": "uint256[]"
        }
      ],
      "stateMutability": "nonpayable",
      "type": "function"
    },
    {
      "inputs": [
        {
          "internalType": "address",
          "name": "ownerAddress",
          "type": "address"
        }
      ],
      "name": "getActive",
      "outputs": [
        {
          "internalType": "string[]",
          "name": "",
          "type": "string[]"
        }
      ],
      "stateMutability": "view",
      "type": "function",
      "constant": true
    },
    {
      "inputs": [
        {
          "internalType": "address",
          "name": "ownerAddress",
          "type": "address"
        },
        {
          "internalType": "string",
          "name": "votingName",
          "type": "string"
        }
      ],
      "name": "getVariants",
      "outputs": [
        {
          "internalType": "uint256[]",
          "name": "",
          "type": "uint256[]"
        }
      ],
      "stateMutability": "view",
      "type": "function",
      "constant": true
    },
    {
      "inputs": [
        {
          "internalType": "string",
          "name": "votingName",
          "type": "string"
        }
      ],
      "name": "endVoting",
      "outputs": [
        {
          "internalType": "uint256[]",
          "name": "",
          "type": "uint256[]"
        }
      ],
      "stateMutability": "nonpayable",
      "type": "function"
    }
  ],
  "bytecode": "0x608060405234801561001057600080fd5b5061001f61006360201b60201c565b6000806101000a81548173ffffffffffffffffffffffffffffffffffffffff021916908373ffffffffffffffffffffffffffffffffffffffff16021790555061006b565b600033905090565b6125918061007a6000396000f3fe6080604052600436106100865760003560e01c806390a072501161005957806390a072501461016b578063a4f3395f146101a8578063cd43b2ba146101e5578063ce63c28914610201578063daea3e3a1461023e57610086565b80630988569c1461008b5780630fca7738146100c85780633b00a3e3146101055780633d04b77e14610142575b600080fd5b34801561009757600080fd5b506100b260048036038101906100ad91906119e7565b61027b565b6040516100bf9190611b01565b60405180910390f35b3480156100d457600080fd5b506100ef60048036038101906100ea9190611b59565b610368565b6040516100fc9190611b01565b60405180910390f35b34801561011157600080fd5b5061012c60048036038101906101279190611bc8565b610467565b6040516101399190611ccf565b60405180910390f35b34801561014e57600080fd5b5061016960048036038101906101649190611b59565b6106f8565b005b34801561017757600080fd5b50610192600480360381019061018d9190611cf1565b610bdc565b60405161019f9190611e68565b60405180910390f35b3480156101b457600080fd5b506101cf60048036038101906101ca91906119e7565b610cf4565b6040516101dc9190611ccf565b60405180910390f35b6101ff60048036038101906101fa9190612015565b610dab565b005b34801561020d57600080fd5b50610228600480360381019061022391906119e7565b61100f565b6040516102359190611ccf565b60405180910390f35b34801561024a57600080fd5b5061026560048036038101906102609190611cf1565b611243565b6040516102729190611e68565b60405180910390f35b6060600160008473ffffffffffffffffffffffffffffffffffffffff1673ffffffffffffffffffffffffffffffffffffffff168152602001908152602001600020826040516102ca91906120f8565b908152602001604051809103902060030180548060200260200160405190810160405280929190818152602001828054801561035b57602002820191906000526020600020905b8160009054906101000a900473ffffffffffffffffffffffffffffffffffffffff1673ffffffffffffffffffffffffffffffffffffffff1681526020019060010190808311610311575b5050505050905092915050565b6060600160008573ffffffffffffffffffffffffffffffffffffffff1673ffffffffffffffffffffffffffffffffffffffff168152602001908152602001600020836040516103b791906120f8565b9081526020016040518091039020600101600083815260200190815260200160002080548060200260200160405190810160405280929190818152602001828054801561045957602002820191906000526020600020905b8160009054906101000a900473ffffffffffffffffffffffffffffffffffffffff1673ffffffffffffffffffffffffffffffffffffffff168152602001906001019080831161040f575b505050505090509392505050565b60606000600160003373ffffffffffffffffffffffffffffffffffffffff1673ffffffffffffffffffffffffffffffffffffffff168152602001908152602001600020836040516104b891906120f8565b90815260200160405180910390206000018054905014156104d857600080fd5b60006104e4338461100f565b9050600160003373ffffffffffffffffffffffffffffffffffffffff1673ffffffffffffffffffffffffffffffffffffffff1681526020019081526020016000208360405161053391906120f8565b90815260200160405180910390206000808201600061055291906116bd565b60038201600061056291906116de565b60048201600061057291906116bd565b505060005b600260003373ffffffffffffffffffffffffffffffffffffffff1673ffffffffffffffffffffffffffffffffffffffff168152602001908152602001600020805490508110156106ee57600260003373ffffffffffffffffffffffffffffffffffffffff1673ffffffffffffffffffffffffffffffffffffffff16815260200190815260200160002081815481106106125761061161210f565b5b9060005260206000200160405160200161062c9190612233565b604051602081830303815290604052805190602001208460405160200161065391906120f8565b6040516020818303038152906040528051906020012014156106db57600260003373ffffffffffffffffffffffffffffffffffffffff1673ffffffffffffffffffffffffffffffffffffffff16815260200190815260200160002081815481106106c0576106bf61210f565b5b9060005260206000200160006106d691906116ff565b6106ee565b80806106e690612279565b915050610577565b5080915050919050565b600160008473ffffffffffffffffffffffffffffffffffffffff1673ffffffffffffffffffffffffffffffffffffffff1681526020019081526020016000208260405161074591906120f8565b908152602001604051809103902060000180549050811061079b576040517f08c379a00000000000000000000000000000000000000000000000000000000081526004016107929061231f565b60405180910390fd5b3373ffffffffffffffffffffffffffffffffffffffff168373ffffffffffffffffffffffffffffffffffffffff16141561080a576040517f08c379a00000000000000000000000000000000000000000000000000000000081526004016108019061238b565b60405180910390fd5b60001515600160008573ffffffffffffffffffffffffffffffffffffffff1673ffffffffffffffffffffffffffffffffffffffff1681526020019081526020016000208360405161085b91906120f8565b908152602001604051809103902060020160003373ffffffffffffffffffffffffffffffffffffffff1673ffffffffffffffffffffffffffffffffffffffff16815260200190815260200160002060009054906101000a900460ff161515146108f9576040517f08c379a00000000000000000000000000000000000000000000000000000000081526004016108f0906123f7565b60405180910390fd5b6000600160008573ffffffffffffffffffffffffffffffffffffffff1673ffffffffffffffffffffffffffffffffffffffff1681526020019081526020016000208360405161094891906120f8565b9081526020016040518091039020600301805490501480610a15575060011515600160008573ffffffffffffffffffffffffffffffffffffffff1673ffffffffffffffffffffffffffffffffffffffff168152602001908152602001600020836040516109b591906120f8565b908152602001604051809103902060050160003373ffffffffffffffffffffffffffffffffffffffff1673ffffffffffffffffffffffffffffffffffffffff16815260200190815260200160002060009054906101000a900460ff161515145b610a54576040517f08c379a0000000000000000000000000000000000000000000000000000000008152600401610a4b90612463565b60405180910390fd5b60018060008573ffffffffffffffffffffffffffffffffffffffff1673ffffffffffffffffffffffffffffffffffffffff16815260200190815260200160002083604051610aa291906120f8565b908152602001604051809103902060020160003373ffffffffffffffffffffffffffffffffffffffff1673ffffffffffffffffffffffffffffffffffffffff16815260200190815260200160002060006101000a81548160ff021916908315150217905550600160008473ffffffffffffffffffffffffffffffffffffffff1673ffffffffffffffffffffffffffffffffffffffff16815260200190815260200160002082604051610b5491906120f8565b90815260200160405180910390206001016000828152602001908152602001600020339080600181540180825580915050600190039060005260206000200160009091909190916101000a81548173ffffffffffffffffffffffffffffffffffffffff021916908373ffffffffffffffffffffffffffffffffffffffff160217905550505050565b6060600260008373ffffffffffffffffffffffffffffffffffffffff1673ffffffffffffffffffffffffffffffffffffffff168152602001908152602001600020805480602002602001604051908101604052809291908181526020016000905b82821015610ce9578382906000526020600020018054610c5c9061216d565b80601f0160208091040260200160405190810160405280929190818152602001828054610c889061216d565b8015610cd55780601f10610caa57610100808354040283529160200191610cd5565b820191906000526020600020905b815481529060010190602001808311610cb857829003601f168201915b505050505081526020019060010190610c3d565b505050509050919050565b6060600160008473ffffffffffffffffffffffffffffffffffffffff1673ffffffffffffffffffffffffffffffffffffffff16815260200190815260200160002082604051610d4391906120f8565b9081526020016040518091039020600001805480602002602001604051908101604052809291908181526020018280548015610d9e57602002820191906000526020600020905b815481526020019060010190808311610d8a575b5050505050905092915050565b60001515610ec784600260003373ffffffffffffffffffffffffffffffffffffffff1673ffffffffffffffffffffffffffffffffffffffff168152602001908152602001600020805480602002602001604051908101604052809291908181526020016000905b82821015610ebe578382906000526020600020018054610e319061216d565b80601f0160208091040260200160405190810160405280929190818152602001828054610e5d9061216d565b8015610eaa5780601f10610e7f57610100808354040283529160200191610eaa565b820191906000526020600020905b815481529060010190602001808311610e8d57829003601f168201915b505050505081526020019060010190610e12565b5050505061135b565b151514610f09576040517f08c379a0000000000000000000000000000000000000000000000000000000008152600401610f00906124cf565b60405180910390fd5b81600160003373ffffffffffffffffffffffffffffffffffffffff1673ffffffffffffffffffffffffffffffffffffffff16815260200190815260200160002084604051610f5791906120f8565b90815260200160405180910390206000019080519060200190610f7b92919061173f565b50600260003373ffffffffffffffffffffffffffffffffffffffff1673ffffffffffffffffffffffffffffffffffffffff16815260200190815260200160002083908060018154018082558091505060019003906000526020600020016000909190919091509080519060200190610ff492919061178c565b50600081511461100a57611009338483611403565b5b505050565b60606000600160008573ffffffffffffffffffffffffffffffffffffffff1673ffffffffffffffffffffffffffffffffffffffff1681526020019081526020016000208360405161106091906120f8565b908152602001604051809103902060000180549050905060005b8181101561118c57600160008673ffffffffffffffffffffffffffffffffffffffff1673ffffffffffffffffffffffffffffffffffffffff168152602001908152602001600020846040516110cf91906120f8565b9081526020016040518091039020600401600160008773ffffffffffffffffffffffffffffffffffffffff1673ffffffffffffffffffffffffffffffffffffffff1681526020019081526020016000208560405161112d91906120f8565b90815260200160405180910390206001016000838152602001908152602001600020805490509080600181540180825580915050600190039060005260206000200160009091909190915055808061118490612279565b91505061107a565b50600160008573ffffffffffffffffffffffffffffffffffffffff1673ffffffffffffffffffffffffffffffffffffffff168152602001908152602001600020836040516111da91906120f8565b908152602001604051809103902060040180548060200260200160405190810160405280929190818152602001828054801561123557602002820191906000526020600020905b815481526020019060010190808311611221575b505050505091505092915050565b6060600260008373ffffffffffffffffffffffffffffffffffffffff1673ffffffffffffffffffffffffffffffffffffffff168152602001908152602001600020805480602002602001604051908101604052809291908181526020016000905b828210156113505783829060005260206000200180546112c39061216d565b80601f01602080910402602001604051908101604052809291908181526020018280546112ef9061216d565b801561133c5780601f106113115761010080835404028352916020019161133c565b820191906000526020600020905b81548152906001019060200180831161131f57829003601f168201915b5050505050815260200190600101906112a4565b505050509050919050565b600080600090505b82518110156113f75782818151811061137f5761137e61210f565b5b602002602001015160405160200161139791906120f8565b60405160208183030381529060405280519060200120846040516020016113be91906120f8565b6040516020818303038152906040528051906020012014156113e45760019150506113fd565b80806113ef90612279565b915050611363565b50600090505b92915050565b60005b81518110156116b75760001515600160008673ffffffffffffffffffffffffffffffffffffffff1673ffffffffffffffffffffffffffffffffffffffff1681526020019081526020016000208460405161146091906120f8565b908152602001604051809103902060050160003373ffffffffffffffffffffffffffffffffffffffff1673ffffffffffffffffffffffffffffffffffffffff16815260200190815260200160002060009054906101000a900460ff161515146114fe576040517f08c379a00000000000000000000000000000000000000000000000000000000081526004016114f59061253b565b60405180910390fd5b60018060008673ffffffffffffffffffffffffffffffffffffffff1673ffffffffffffffffffffffffffffffffffffffff1681526020019081526020016000208460405161154c91906120f8565b908152602001604051809103902060050160008484815181106115725761157161210f565b5b602002602001015173ffffffffffffffffffffffffffffffffffffffff1673ffffffffffffffffffffffffffffffffffffffff16815260200190815260200160002060006101000a81548160ff021916908315150217905550600160008573ffffffffffffffffffffffffffffffffffffffff1673ffffffffffffffffffffffffffffffffffffffff1681526020019081526020016000208360405161161891906120f8565b908152602001604051809103902060030182828151811061163c5761163b61210f565b5b60200260200101519080600181540180825580915050600190039060005260206000200160009091909190916101000a81548173ffffffffffffffffffffffffffffffffffffffff021916908373ffffffffffffffffffffffffffffffffffffffff16021790555080806116af90612279565b915050611406565b50505050565b50805460008255906000526020600020908101906116db9190611812565b50565b50805460008255906000526020600020908101906116fc9190611812565b50565b50805461170b9061216d565b6000825580601f1061171d575061173c565b601f01602090049060005260206000209081019061173b9190611812565b5b50565b82805482825590600052602060002090810192821561177b579160200282015b8281111561177a57825182559160200191906001019061175f565b5b5090506117889190611812565b5090565b8280546117989061216d565b90600052602060002090601f0160209004810192826117ba5760008555611801565b82601f106117d357805160ff1916838001178555611801565b82800160010185558215611801579182015b828111156118005782518255916020019190600101906117e5565b5b50905061180e9190611812565b5090565b5b8082111561182b576000816000905550600101611813565b5090565b6000604051905090565b600080fd5b600080fd5b600073ffffffffffffffffffffffffffffffffffffffff82169050919050565b600061186e82611843565b9050919050565b61187e81611863565b811461188957600080fd5b50565b60008135905061189b81611875565b92915050565b600080fd5b600080fd5b6000601f19601f8301169050919050565b7f4e487b7100000000000000000000000000000000000000000000000000000000600052604160045260246000fd5b6118f4826118ab565b810181811067ffffffffffffffff82111715611913576119126118bc565b5b80604052505050565b600061192661182f565b905061193282826118eb565b919050565b600067ffffffffffffffff821115611952576119516118bc565b5b61195b826118ab565b9050602081019050919050565b82818337600083830152505050565b600061198a61198584611937565b61191c565b9050828152602081018484840111156119a6576119a56118a6565b5b6119b1848285611968565b509392505050565b600082601f8301126119ce576119cd6118a1565b5b81356119de848260208601611977565b91505092915050565b600080604083850312156119fe576119fd611839565b5b6000611a0c8582860161188c565b925050602083013567ffffffffffffffff811115611a2d57611a2c61183e565b5b611a39858286016119b9565b9150509250929050565b600081519050919050565b600082825260208201905092915050565b6000819050602082019050919050565b611a7881611863565b82525050565b6000611a8a8383611a6f565b60208301905092915050565b6000602082019050919050565b6000611aae82611a43565b611ab88185611a4e565b9350611ac383611a5f565b8060005b83811015611af4578151611adb8882611a7e565b9750611ae683611a96565b925050600181019050611ac7565b5085935050505092915050565b60006020820190508181036000830152611b1b8184611aa3565b905092915050565b6000819050919050565b611b3681611b23565b8114611b4157600080fd5b50565b600081359050611b5381611b2d565b92915050565b600080600060608486031215611b7257611b71611839565b5b6000611b808682870161188c565b935050602084013567ffffffffffffffff811115611ba157611ba061183e565b5b611bad868287016119b9565b9250506040611bbe86828701611b44565b9150509250925092565b600060208284031215611bde57611bdd611839565b5b600082013567ffffffffffffffff811115611bfc57611bfb61183e565b5b611c08848285016119b9565b91505092915050565b600081519050919050565b600082825260208201905092915050565b6000819050602082019050919050565b611c4681611b23565b82525050565b6000611c588383611c3d565b60208301905092915050565b6000602082019050919050565b6000611c7c82611c11565b611c868185611c1c565b9350611c9183611c2d565b8060005b83811015611cc2578151611ca98882611c4c565b9750611cb483611c64565b925050600181019050611c95565b5085935050505092915050565b60006020820190508181036000830152611ce98184611c71565b905092915050565b600060208284031215611d0757611d06611839565b5b6000611d158482850161188c565b91505092915050565b600081519050919050565b600082825260208201905092915050565b6000819050602082019050919050565b600081519050919050565b600082825260208201905092915050565b60005b83811015611d84578082015181840152602081019050611d69565b83811115611d93576000848401525b50505050565b6000611da482611d4a565b611dae8185611d55565b9350611dbe818560208601611d66565b611dc7816118ab565b840191505092915050565b6000611dde8383611d99565b905092915050565b6000602082019050919050565b6000611dfe82611d1e565b611e088185611d29565b935083602082028501611e1a85611d3a565b8060005b85811015611e565784840389528151611e378582611dd2565b9450611e4283611de6565b925060208a01995050600181019050611e1e565b50829750879550505050505092915050565b60006020820190508181036000830152611e828184611df3565b905092915050565b600067ffffffffffffffff821115611ea557611ea46118bc565b5b602082029050602081019050919050565b600080fd5b6000611ece611ec984611e8a565b61191c565b90508083825260208201905060208402830185811115611ef157611ef0611eb6565b5b835b81811015611f1a5780611f068882611b44565b845260208401935050602081019050611ef3565b5050509392505050565b600082601f830112611f3957611f386118a1565b5b8135611f49848260208601611ebb565b91505092915050565b600067ffffffffffffffff821115611f6d57611f6c6118bc565b5b602082029050602081019050919050565b6000611f91611f8c84611f52565b61191c565b90508083825260208201905060208402830185811115611fb457611fb3611eb6565b5b835b81811015611fdd5780611fc9888261188c565b845260208401935050602081019050611fb6565b5050509392505050565b600082601f830112611ffc57611ffb6118a1565b5b813561200c848260208601611f7e565b91505092915050565b60008060006060848603121561202e5761202d611839565b5b600084013567ffffffffffffffff81111561204c5761204b61183e565b5b612058868287016119b9565b935050602084013567ffffffffffffffff8111156120795761207861183e565b5b61208586828701611f24565b925050604084013567ffffffffffffffff8111156120a6576120a561183e565b5b6120b286828701611fe7565b9150509250925092565b600081905092915050565b60006120d282611d4a565b6120dc81856120bc565b93506120ec818560208601611d66565b80840191505092915050565b600061210482846120c7565b915081905092915050565b7f4e487b7100000000000000000000000000000000000000000000000000000000600052603260045260246000fd5b7f4e487b7100000000000000000000000000000000000000000000000000000000600052602260045260246000fd5b6000600282049050600182168061218557607f821691505b602082108114156121995761219861213e565b5b50919050565b60008190508160005260206000209050919050565b600081546121c18161216d565b6121cb81866120bc565b945060018216600081146121e657600181146121f75761222a565b60ff1983168652818601935061222a565b6122008561219f565b60005b8381101561222257815481890152600182019150602081019050612203565b838801955050505b50505092915050565b600061223f82846121b4565b915081905092915050565b7f4e487b7100000000000000000000000000000000000000000000000000000000600052601160045260246000fd5b600061228482611b23565b91507fffffffffffffffffffffffffffffffffffffffffffffffffffffffffffffffff8214156122b7576122b661224a565b5b600182019050919050565b600082825260208201905092915050565b7f57726f6e6720696e646578000000000000000000000000000000000000000000600082015250565b6000612309600b836122c2565b9150612314826122d3565b602082019050919050565b60006020820190508181036000830152612338816122fc565b9050919050565b7f4e6f7420666f72206f776e657200000000000000000000000000000000000000600082015250565b6000612375600d836122c2565b91506123808261233f565b602082019050919050565b600060208201905081810360008301526123a481612368565b9050919050565b7f43616e20766f7465206f6e6c7920312074696d65000000000000000000000000600082015250565b60006123e16014836122c2565b91506123ec826123ab565b602082019050919050565b60006020820190508181036000830152612410816123d4565b9050919050565b7f596f752068617665206e6f207065726d697373696f6e00000000000000000000600082015250565b600061244d6016836122c2565b915061245882612417565b602082019050919050565b6000602082019050818103600083015261247c81612440565b9050919050565b7f4e616d652069732074616b656e00000000000000000000000000000000000000600082015250565b60006124b9600d836122c2565b91506124c482612483565b602082019050919050565b600060208201905081810360008301526124e8816124ac565b9050919050565b7f5573657220697320616c726561647920616c6c6f776564000000000000000000600082015250565b60006125256017836122c2565b9150612530826124ef565b602082019050919050565b6000602082019050818103600083015261255481612518565b905091905056fea264697066735822122018f0e1157c6f95e7f1bcb8a050a1063caf90cb0429a8c0cde95e5ba6b4d5169464736f6c634300080b0033",
  "immutableReferences": {},
  "source": "// SPDX-License-Identifier: MIT\npragma solidity >=0.4.22 <0.9.0;\n\n// TO DO\n// connect gh +\n// Add f list of people who can vote +\n// Add f RETURN  USERS OF EACH VAR +\n// Add f RETURN RESULT +\n// MAKE RETURN OF ALLOWED USERS +\n// Replace count of votes => array of voters; counts = array.len + \n// Add f check users active votes // need to delete voting first +\n// REMAKE GETVOTES + \n// Add f watching current result // using get votes +\n// Research the \"delete\" method +\n// Add f end voting (save results into variable(call GetVotes), delete info about voting, return variable) +\n// Add f getVariants\n\ncontract Vote {\n    \n    address private _owner;\n    mapping(address => mapping(string => VotingData)) _voting;\n    mapping(address => string[]) userVotings;\n    \n    constructor() {\n        _owner = _msgSender();\n    }\n    \n    modifier OnlyOwner() {\n        require(\n            msg.sender == _owner,\n            \"This function is restricted to the contract's owner\"\n        );\n         _;\n    }\n    \n    struct VotingData {\n        uint[] variantsForEachVoting;\n        mapping(uint => address[]) voters;  \n        mapping(address => bool) isVoted;\n        address[] allowedUsers;  \n        uint[] result;\n        mapping(address => bool) allowedUsersMapping;\n    }\n    \n    function _createVoting(string memory _votingName, uint[] memory variants, address[] memory _allowedUsers) external payable{\n        //require UNIQ name of voting\n        require(  _exists(_votingName, userVotings[msg.sender]) == false, \"Name is taken\" );\n        \n        _voting[msg.sender][_votingName].variantsForEachVoting = variants;\n        userVotings[msg.sender].push(_votingName);\n        \n        if (_allowedUsers.length != 0) {\n            _setAllowedUsers(msg.sender, _votingName, _allowedUsers);\n        }\n    }\n    \n    function _setAllowedUsers(address _sender, string memory _votingName, address[] memory _allowedUsers) internal {\n        for (uint i=0; i<_allowedUsers.length;i++){\n            require(_voting[_sender][_votingName].allowedUsersMapping[msg.sender] == false, \"User is already allowed\");\n            \n            _voting[_sender][_votingName].allowedUsersMapping[_allowedUsers[i]] = true;\n            _voting[_sender][_votingName].allowedUsers.push(_allowedUsers[i]);\n        }\n    }\n    \n    function _vote(address votingOwner, string memory _votingName, uint _index) external {\n        require(_index<_voting[votingOwner][_votingName].variantsForEachVoting.length, \"Wrong index\");\n        require(votingOwner != msg.sender, 'Not for owner');\n        require(_voting[votingOwner][_votingName].isVoted[msg.sender] == false, \"Can vote only 1 time\");\n        require(_voting[votingOwner][_votingName].allowedUsers.length == 0 ||\n        \n        _voting[votingOwner][_votingName].allowedUsersMapping[msg.sender] == true, \"You have no permission\");\n        _voting[votingOwner][_votingName].isVoted[msg.sender] = true;\n        _voting[votingOwner][_votingName].voters[_index].push(msg.sender);\n    }\n    \n    // function deleteVote()\n    \n    function getUserVotings(address ownerAddress) public view returns(string[] memory) {\n        return userVotings[ownerAddress];\n    }\n\n    function getAllowedUsers(address ownerAddress, string memory votingName) view public returns( address[] memory) {\n        return _voting[ownerAddress][votingName].allowedUsers;\n    }\n    \n    function getVoters(address ownerAddress, string memory votingName, uint index) view public returns(address[] memory) {\n        return  _voting[ownerAddress][votingName].voters[index];\n    }\n    \n    function getVotes(address ownerAddress, string memory votingName) public returns(uint[] memory) {\n        uint varsCount =  _voting[ownerAddress][votingName].variantsForEachVoting.length;\n        \n        for (uint i=0;i<varsCount;i++) {\n            //Needs to collect size of each variant and them them all together \n            _voting[ownerAddress][votingName].result.push(_voting[ownerAddress][votingName].voters[i].length);\n        }\n        \n        return _voting[ownerAddress][votingName].result; \n    }\n    \n    function getActive(address ownerAddress) public view returns(string[] memory){\n        return userVotings[ownerAddress];\n    }\n    \n    function getVariants(address ownerAddress, string memory votingName) public view returns(uint[] memory) {\n        return  _voting[ownerAddress][votingName].variantsForEachVoting;\n    }\n\n    function endVoting(string memory votingName) public returns(uint[] memory) {\n        require(_voting[msg.sender][votingName].variantsForEachVoting.length != 0);\n        uint[] memory _result = getVotes(msg.sender, votingName);\n        delete _voting[msg.sender][votingName];\n        for (uint i = 0; i < userVotings[msg.sender].length; i++){\n            if (keccak256(abi.encodePacked(votingName)) == keccak256(abi.encodePacked(userVotings[msg.sender][i]))) {\n                //Add normal remove\n                delete userVotings[msg.sender][i];\n                break;\n            }\n        }\n\n        return _result;\n\n    }\n\n    function _msgSender() internal view virtual returns (address) {\n        return msg.sender;\n    }\n    \n    function _exists( string memory element, string[] memory array ) internal pure returns(bool) {\n        for (uint i=0; i < array.length; i++) {\n            if (keccak256(abi.encodePacked((element))) == keccak256(abi.encodePacked((array[i])))) {\n                return true;\n            }     \n        }\n        \n        return false; \n    }\n}\n",
  "sourcePath": "C:\\MyFiles\\Projects\\BlockChain\\vote-dapp\\contracts\\Vote.sol",
  "compiler": {
    "name": "solc",
    "version": "0.8.11+commit.d7f03943.Emscripten.clang"
  },
  "schemaVersion": "3.4.4",
  "updatedAt": "2022-07-03T10:05:59.103Z",
  "networkType": "ethereum",
  "devdoc": {
    "kind": "dev",
    "methods": {},
    "version": 1
  },
  "userdoc": {
    "kind": "user",
    "methods": {},
    "version": 1
  }
}